{
	"contracts/Largest.sol": {
		"Largest": {
			"abi": [
				{
					"inputs": [
						{
							"internalType": "int256",
							"name": "Number1",
							"type": "int256"
						},
						{
							"internalType": "int256",
							"name": "Number2",
							"type": "int256"
						},
						{
							"internalType": "int256",
							"name": "Number3",
							"type": "int256"
						}
					],
					"name": "CheckLargest",
					"outputs": [
						{
							"internalType": "string",
							"name": "result",
							"type": "string"
						}
					],
					"stateMutability": "pure",
					"type": "function"
				}
			],
			"devdoc": {
				"kind": "dev",
				"methods": {},
				"version": 1
			},
			"evm": {
				"assembly": "    /* \"contracts/Largest.sol\":57:599  contract Largest{... */\n  mstore(0x40, 0x80)\n  callvalue\n  dup1\n  iszero\n  tag_1\n  jumpi\n  0x00\n  dup1\n  revert\ntag_1:\n  pop\n  dataSize(sub_0)\n  dup1\n  dataOffset(sub_0)\n  0x00\n  codecopy\n  0x00\n  return\nstop\n\nsub_0: assembly {\n        /* \"contracts/Largest.sol\":57:599  contract Largest{... */\n      mstore(0x40, 0x80)\n      callvalue\n      dup1\n      iszero\n      tag_1\n      jumpi\n      0x00\n      dup1\n      revert\n    tag_1:\n      pop\n      jumpi(tag_2, lt(calldatasize, 0x04))\n      shr(0xe0, calldataload(0x00))\n      dup1\n      0x1a4a86f2\n      eq\n      tag_3\n      jumpi\n    tag_2:\n      0x00\n      dup1\n      revert\n        /* \"contracts/Largest.sol\":80:596  function CheckLargest(int Number1,int Number2,int Number3) public pure returns(string memory result){... */\n    tag_3:\n      tag_4\n      0x04\n      dup1\n      calldatasize\n      sub\n      dup2\n      add\n      swap1\n      tag_5\n      swap2\n      swap1\n      tag_6\n      jump\t// in\n    tag_5:\n      tag_7\n      jump\t// in\n    tag_4:\n      mload(0x40)\n      tag_8\n      swap2\n      swap1\n      tag_9\n      jump\t// in\n    tag_8:\n      mload(0x40)\n      dup1\n      swap2\n      sub\n      swap1\n      return\n    tag_7:\n        /* \"contracts/Largest.sol\":159:179  string memory result */\n      0x60\n        /* \"contracts/Largest.sol\":205:212  Number2 */\n      dup3\n        /* \"contracts/Largest.sol\":195:202  Number1 */\n      dup5\n        /* \"contracts/Largest.sol\":195:212  Number1 > Number2 */\n      sgt\n        /* \"contracts/Largest.sol\":195:232  Number1 > Number2 && Number1 >Number3 */\n      dup1\n      iszero\n      tag_11\n      jumpi\n      pop\n        /* \"contracts/Largest.sol\":225:232  Number3 */\n      dup2\n        /* \"contracts/Largest.sol\":216:223  Number1 */\n      dup5\n        /* \"contracts/Largest.sol\":216:232  Number1 >Number3 */\n      sgt\n        /* \"contracts/Largest.sol\":195:232  Number1 > Number2 && Number1 >Number3 */\n    tag_11:\n        /* \"contracts/Largest.sol\":191:589  if (Number1 > Number2 && Number1 >Number3){... */\n      iszero\n      tag_12\n      jumpi\n        /* \"contracts/Largest.sol\":248:287  result=\"Number 1 is the biggest of all\" */\n      mload(0x40)\n      dup1\n      0x40\n      add\n      0x40\n      mstore\n      dup1\n      0x1e\n      dup2\n      mstore\n      0x20\n      add\n      0x4e756d6265722031206973207468652062696767657374206f6620616c6c0000\n      dup2\n      mstore\n      pop\n      swap1\n      pop\n        /* \"contracts/Largest.sol\":302:315  return result */\n      jump(tag_10)\n        /* \"contracts/Largest.sol\":191:589  if (Number1 > Number2 && Number1 >Number3){... */\n    tag_12:\n        /* \"contracts/Largest.sol\":356:363  Number1 */\n      dup4\n        /* \"contracts/Largest.sol\":346:353  Number2 */\n      dup4\n        /* \"contracts/Largest.sol\":346:363  Number2 > Number1 */\n      sgt\n        /* \"contracts/Largest.sol\":346:383  Number2 > Number1 && Number2 >Number3 */\n      dup1\n      iszero\n      tag_14\n      jumpi\n      pop\n        /* \"contracts/Largest.sol\":376:383  Number3 */\n      dup2\n        /* \"contracts/Largest.sol\":367:374  Number2 */\n      dup4\n        /* \"contracts/Largest.sol\":367:383  Number2 >Number3 */\n      sgt\n        /* \"contracts/Largest.sol\":346:383  Number2 > Number1 && Number2 >Number3 */\n    tag_14:\n        /* \"contracts/Largest.sol\":342:589  if (Number2 > Number1 && Number2 >Number3){... */\n      iszero\n      tag_15\n      jumpi\n        /* \"contracts/Largest.sol\":399:438  result=\"Number 2 is the biggest of all\" */\n      mload(0x40)\n      dup1\n      0x40\n      add\n      0x40\n      mstore\n      dup1\n      0x1e\n      dup2\n      mstore\n      0x20\n      add\n      0x4e756d6265722032206973207468652062696767657374206f6620616c6c0000\n      dup2\n      mstore\n      pop\n      swap1\n      pop\n        /* \"contracts/Largest.sol\":453:466  return result */\n      jump(tag_10)\n        /* \"contracts/Largest.sol\":342:589  if (Number2 > Number1 && Number2 >Number3){... */\n    tag_15:\n        /* \"contracts/Largest.sol\":508:547  result=\"Number 3 is the biggest of all\" */\n      mload(0x40)\n      dup1\n      0x40\n      add\n      0x40\n      mstore\n      dup1\n      0x1e\n      dup2\n      mstore\n      0x20\n      add\n      0x4e756d6265722033206973207468652062696767657374206f6620616c6c0000\n      dup2\n      mstore\n      pop\n      swap1\n      pop\n        /* \"contracts/Largest.sol\":80:596  function CheckLargest(int Number1,int Number2,int Number3) public pure returns(string memory result){... */\n    tag_10:\n      swap4\n      swap3\n      pop\n      pop\n      pop\n      jump\t// out\n        /* \"#utility.yul\":88:205   */\n    tag_18:\n        /* \"#utility.yul\":197:198   */\n      0x00\n        /* \"#utility.yul\":194:195   */\n      dup1\n        /* \"#utility.yul\":187:199   */\n      revert\n        /* \"#utility.yul\":334:410   */\n    tag_20:\n        /* \"#utility.yul\":370:377   */\n      0x00\n        /* \"#utility.yul\":399:404   */\n      dup2\n        /* \"#utility.yul\":388:404   */\n      swap1\n      pop\n        /* \"#utility.yul\":334:410   */\n      swap2\n      swap1\n      pop\n      jump\t// out\n        /* \"#utility.yul\":416:536   */\n    tag_21:\n        /* \"#utility.yul\":488:511   */\n      tag_34\n        /* \"#utility.yul\":505:510   */\n      dup2\n        /* \"#utility.yul\":488:511   */\n      tag_20\n      jump\t// in\n    tag_34:\n        /* \"#utility.yul\":481:486   */\n      dup2\n        /* \"#utility.yul\":478:512   */\n      eq\n        /* \"#utility.yul\":468:530   */\n      tag_35\n      jumpi\n        /* \"#utility.yul\":526:527   */\n      0x00\n        /* \"#utility.yul\":523:524   */\n      dup1\n        /* \"#utility.yul\":516:528   */\n      revert\n        /* \"#utility.yul\":468:530   */\n    tag_35:\n        /* \"#utility.yul\":416:536   */\n      pop\n      jump\t// out\n        /* \"#utility.yul\":542:679   */\n    tag_22:\n        /* \"#utility.yul\":587:592   */\n      0x00\n        /* \"#utility.yul\":625:631   */\n      dup2\n        /* \"#utility.yul\":612:632   */\n      calldataload\n        /* \"#utility.yul\":603:632   */\n      swap1\n      pop\n        /* \"#utility.yul\":641:673   */\n      tag_37\n        /* \"#utility.yul\":667:672   */\n      dup2\n        /* \"#utility.yul\":641:673   */\n      tag_21\n      jump\t// in\n    tag_37:\n        /* \"#utility.yul\":542:679   */\n      swap3\n      swap2\n      pop\n      pop\n      jump\t// out\n        /* \"#utility.yul\":685:1298   */\n    tag_6:\n        /* \"#utility.yul\":759:765   */\n      0x00\n        /* \"#utility.yul\":767:773   */\n      dup1\n        /* \"#utility.yul\":775:781   */\n      0x00\n        /* \"#utility.yul\":824:826   */\n      0x60\n        /* \"#utility.yul\":812:821   */\n      dup5\n        /* \"#utility.yul\":803:810   */\n      dup7\n        /* \"#utility.yul\":799:822   */\n      sub\n        /* \"#utility.yul\":795:827   */\n      slt\n        /* \"#utility.yul\":792:911   */\n      iszero\n      tag_39\n      jumpi\n        /* \"#utility.yul\":830:909   */\n      tag_40\n      tag_18\n      jump\t// in\n    tag_40:\n        /* \"#utility.yul\":792:911   */\n    tag_39:\n        /* \"#utility.yul\":950:951   */\n      0x00\n        /* \"#utility.yul\":975:1027   */\n      tag_41\n        /* \"#utility.yul\":1019:1026   */\n      dup7\n        /* \"#utility.yul\":1010:1016   */\n      dup3\n        /* \"#utility.yul\":999:1008   */\n      dup8\n        /* \"#utility.yul\":995:1017   */\n      add\n        /* \"#utility.yul\":975:1027   */\n      tag_22\n      jump\t// in\n    tag_41:\n        /* \"#utility.yul\":965:1027   */\n      swap4\n      pop\n        /* \"#utility.yul\":921:1037   */\n      pop\n        /* \"#utility.yul\":1076:1078   */\n      0x20\n        /* \"#utility.yul\":1102:1154   */\n      tag_42\n        /* \"#utility.yul\":1146:1153   */\n      dup7\n        /* \"#utility.yul\":1137:1143   */\n      dup3\n        /* \"#utility.yul\":1126:1135   */\n      dup8\n        /* \"#utility.yul\":1122:1144   */\n      add\n        /* \"#utility.yul\":1102:1154   */\n      tag_22\n      jump\t// in\n    tag_42:\n        /* \"#utility.yul\":1092:1154   */\n      swap3\n      pop\n        /* \"#utility.yul\":1047:1164   */\n      pop\n        /* \"#utility.yul\":1203:1205   */\n      0x40\n        /* \"#utility.yul\":1229:1281   */\n      tag_43\n        /* \"#utility.yul\":1273:1280   */\n      dup7\n        /* \"#utility.yul\":1264:1270   */\n      dup3\n        /* \"#utility.yul\":1253:1262   */\n      dup8\n        /* \"#utility.yul\":1249:1271   */\n      add\n        /* \"#utility.yul\":1229:1281   */\n      tag_22\n      jump\t// in\n    tag_43:\n        /* \"#utility.yul\":1219:1281   */\n      swap2\n      pop\n        /* \"#utility.yul\":1174:1291   */\n      pop\n        /* \"#utility.yul\":685:1298   */\n      swap3\n      pop\n      swap3\n      pop\n      swap3\n      jump\t// out\n        /* \"#utility.yul\":1304:1403   */\n    tag_23:\n        /* \"#utility.yul\":1356:1362   */\n      0x00\n        /* \"#utility.yul\":1390:1395   */\n      dup2\n        /* \"#utility.yul\":1384:1396   */\n      mload\n        /* \"#utility.yul\":1374:1396   */\n      swap1\n      pop\n        /* \"#utility.yul\":1304:1403   */\n      swap2\n      swap1\n      pop\n      jump\t// out\n        /* \"#utility.yul\":1409:1578   */\n    tag_24:\n        /* \"#utility.yul\":1493:1504   */\n      0x00\n        /* \"#utility.yul\":1527:1533   */\n      dup3\n        /* \"#utility.yul\":1522:1525   */\n      dup3\n        /* \"#utility.yul\":1515:1534   */\n      mstore\n        /* \"#utility.yul\":1567:1571   */\n      0x20\n        /* \"#utility.yul\":1562:1565   */\n      dup3\n        /* \"#utility.yul\":1558:1572   */\n      add\n        /* \"#utility.yul\":1543:1572   */\n      swap1\n      pop\n        /* \"#utility.yul\":1409:1578   */\n      swap3\n      swap2\n      pop\n      pop\n      jump\t// out\n        /* \"#utility.yul\":1584:1723   */\n    tag_25:\n        /* \"#utility.yul\":1673:1679   */\n      dup3\n        /* \"#utility.yul\":1668:1671   */\n      dup2\n        /* \"#utility.yul\":1663:1666   */\n      dup4\n        /* \"#utility.yul\":1657:1680   */\n      mcopy\n        /* \"#utility.yul\":1714:1715   */\n      0x00\n        /* \"#utility.yul\":1705:1711   */\n      dup4\n        /* \"#utility.yul\":1700:1703   */\n      dup4\n        /* \"#utility.yul\":1696:1712   */\n      add\n        /* \"#utility.yul\":1689:1716   */\n      mstore\n        /* \"#utility.yul\":1584:1723   */\n      pop\n      pop\n      pop\n      jump\t// out\n        /* \"#utility.yul\":1729:1831   */\n    tag_26:\n        /* \"#utility.yul\":1770:1776   */\n      0x00\n        /* \"#utility.yul\":1821:1823   */\n      0x1f\n        /* \"#utility.yul\":1817:1824   */\n      not\n        /* \"#utility.yul\":1812:1814   */\n      0x1f\n        /* \"#utility.yul\":1805:1810   */\n      dup4\n        /* \"#utility.yul\":1801:1815   */\n      add\n        /* \"#utility.yul\":1797:1825   */\n      and\n        /* \"#utility.yul\":1787:1825   */\n      swap1\n      pop\n        /* \"#utility.yul\":1729:1831   */\n      swap2\n      swap1\n      pop\n      jump\t// out\n        /* \"#utility.yul\":1837:2214   */\n    tag_27:\n        /* \"#utility.yul\":1925:1928   */\n      0x00\n        /* \"#utility.yul\":1953:1992   */\n      tag_49\n        /* \"#utility.yul\":1986:1991   */\n      dup3\n        /* \"#utility.yul\":1953:1992   */\n      tag_23\n      jump\t// in\n    tag_49:\n        /* \"#utility.yul\":2008:2079   */\n      tag_50\n        /* \"#utility.yul\":2072:2078   */\n      dup2\n        /* \"#utility.yul\":2067:2070   */\n      dup6\n        /* \"#utility.yul\":2008:2079   */\n      tag_24\n      jump\t// in\n    tag_50:\n        /* \"#utility.yul\":2001:2079   */\n      swap4\n      pop\n        /* \"#utility.yul\":2088:2153   */\n      tag_51\n        /* \"#utility.yul\":2146:2152   */\n      dup2\n        /* \"#utility.yul\":2141:2144   */\n      dup6\n        /* \"#utility.yul\":2134:2138   */\n      0x20\n        /* \"#utility.yul\":2127:2132   */\n      dup7\n        /* \"#utility.yul\":2123:2139   */\n      add\n        /* \"#utility.yul\":2088:2153   */\n      tag_25\n      jump\t// in\n    tag_51:\n        /* \"#utility.yul\":2178:2207   */\n      tag_52\n        /* \"#utility.yul\":2200:2206   */\n      dup2\n        /* \"#utility.yul\":2178:2207   */\n      tag_26\n      jump\t// in\n    tag_52:\n        /* \"#utility.yul\":2173:2176   */\n      dup5\n        /* \"#utility.yul\":2169:2208   */\n      add\n        /* \"#utility.yul\":2162:2208   */\n      swap2\n      pop\n        /* \"#utility.yul\":1929:2214   */\n      pop\n        /* \"#utility.yul\":1837:2214   */\n      swap3\n      swap2\n      pop\n      pop\n      jump\t// out\n        /* \"#utility.yul\":2220:2533   */\n    tag_9:\n        /* \"#utility.yul\":2333:2337   */\n      0x00\n        /* \"#utility.yul\":2371:2373   */\n      0x20\n        /* \"#utility.yul\":2360:2369   */\n      dup3\n        /* \"#utility.yul\":2356:2374   */\n      add\n        /* \"#utility.yul\":2348:2374   */\n      swap1\n      pop\n        /* \"#utility.yul\":2420:2429   */\n      dup2\n        /* \"#utility.yul\":2414:2418   */\n      dup2\n        /* \"#utility.yul\":2410:2430   */\n      sub\n        /* \"#utility.yul\":2406:2407   */\n      0x00\n        /* \"#utility.yul\":2395:2404   */\n      dup4\n        /* \"#utility.yul\":2391:2408   */\n      add\n        /* \"#utility.yul\":2384:2431   */\n      mstore\n        /* \"#utility.yul\":2448:2526   */\n      tag_54\n        /* \"#utility.yul\":2521:2525   */\n      dup2\n        /* \"#utility.yul\":2512:2518   */\n      dup5\n        /* \"#utility.yul\":2448:2526   */\n      tag_27\n      jump\t// in\n    tag_54:\n        /* \"#utility.yul\":2440:2526   */\n      swap1\n      pop\n        /* \"#utility.yul\":2220:2533   */\n      swap3\n      swap2\n      pop\n      pop\n      jump\t// out\n\n    auxdata: 0xa26469706673582212202931ee9404848c93942a0311de20967cb2c62490645e2bed1c09119b8f1182fc64736f6c634300081a0033\n}\n",
				"bytecode": {
					"linkReferences": {},
					"object": "6080604052348015600e575f80fd5b5061028c8061001c5f395ff3fe608060405234801561000f575f80fd5b5060043610610029575f3560e01c80631a4a86f21461002d575b5f80fd5b61004760048036038101906100429190610176565b61005d565b6040516100549190610236565b60405180910390f35b6060828413801561006d57508184135b156100af576040518060400160405280601e81526020017f4e756d6265722031206973207468652062696767657374206f6620616c6c00008152509050610138565b83831380156100bd57508183135b156100ff576040518060400160405280601e81526020017f4e756d6265722032206973207468652062696767657374206f6620616c6c00008152509050610138565b6040518060400160405280601e81526020017f4e756d6265722033206973207468652062696767657374206f6620616c6c000081525090505b9392505050565b5f80fd5b5f819050919050565b61015581610143565b811461015f575f80fd5b50565b5f813590506101708161014c565b92915050565b5f805f6060848603121561018d5761018c61013f565b5b5f61019a86828701610162565b93505060206101ab86828701610162565b92505060406101bc86828701610162565b9150509250925092565b5f81519050919050565b5f82825260208201905092915050565b8281835e5f83830152505050565b5f601f19601f8301169050919050565b5f610208826101c6565b61021281856101d0565b93506102228185602086016101e0565b61022b816101ee565b840191505092915050565b5f6020820190508181035f83015261024e81846101fe565b90509291505056fea26469706673582212202931ee9404848c93942a0311de20967cb2c62490645e2bed1c09119b8f1182fc64736f6c634300081a0033",
					"opcodes": "PUSH1 0x80 PUSH1 0x40 MSTORE CALLVALUE DUP1 ISZERO PUSH1 0xE JUMPI PUSH0 DUP1 REVERT JUMPDEST POP PUSH2 0x28C DUP1 PUSH2 0x1C PUSH0 CODECOPY PUSH0 RETURN INVALID PUSH1 0x80 PUSH1 0x40 MSTORE CALLVALUE DUP1 ISZERO PUSH2 0xF JUMPI PUSH0 DUP1 REVERT JUMPDEST POP PUSH1 0x4 CALLDATASIZE LT PUSH2 0x29 JUMPI PUSH0 CALLDATALOAD PUSH1 0xE0 SHR DUP1 PUSH4 0x1A4A86F2 EQ PUSH2 0x2D JUMPI JUMPDEST PUSH0 DUP1 REVERT JUMPDEST PUSH2 0x47 PUSH1 0x4 DUP1 CALLDATASIZE SUB DUP2 ADD SWAP1 PUSH2 0x42 SWAP2 SWAP1 PUSH2 0x176 JUMP JUMPDEST PUSH2 0x5D JUMP JUMPDEST PUSH1 0x40 MLOAD PUSH2 0x54 SWAP2 SWAP1 PUSH2 0x236 JUMP JUMPDEST PUSH1 0x40 MLOAD DUP1 SWAP2 SUB SWAP1 RETURN JUMPDEST PUSH1 0x60 DUP3 DUP5 SGT DUP1 ISZERO PUSH2 0x6D JUMPI POP DUP2 DUP5 SGT JUMPDEST ISZERO PUSH2 0xAF JUMPI PUSH1 0x40 MLOAD DUP1 PUSH1 0x40 ADD PUSH1 0x40 MSTORE DUP1 PUSH1 0x1E DUP2 MSTORE PUSH1 0x20 ADD PUSH32 0x4E756D6265722031206973207468652062696767657374206F6620616C6C0000 DUP2 MSTORE POP SWAP1 POP PUSH2 0x138 JUMP JUMPDEST DUP4 DUP4 SGT DUP1 ISZERO PUSH2 0xBD JUMPI POP DUP2 DUP4 SGT JUMPDEST ISZERO PUSH2 0xFF JUMPI PUSH1 0x40 MLOAD DUP1 PUSH1 0x40 ADD PUSH1 0x40 MSTORE DUP1 PUSH1 0x1E DUP2 MSTORE PUSH1 0x20 ADD PUSH32 0x4E756D6265722032206973207468652062696767657374206F6620616C6C0000 DUP2 MSTORE POP SWAP1 POP PUSH2 0x138 JUMP JUMPDEST PUSH1 0x40 MLOAD DUP1 PUSH1 0x40 ADD PUSH1 0x40 MSTORE DUP1 PUSH1 0x1E DUP2 MSTORE PUSH1 0x20 ADD PUSH32 0x4E756D6265722033206973207468652062696767657374206F6620616C6C0000 DUP2 MSTORE POP SWAP1 POP JUMPDEST SWAP4 SWAP3 POP POP POP JUMP JUMPDEST PUSH0 DUP1 REVERT JUMPDEST PUSH0 DUP2 SWAP1 POP SWAP2 SWAP1 POP JUMP JUMPDEST PUSH2 0x155 DUP2 PUSH2 0x143 JUMP JUMPDEST DUP2 EQ PUSH2 0x15F JUMPI PUSH0 DUP1 REVERT JUMPDEST POP JUMP JUMPDEST PUSH0 DUP2 CALLDATALOAD SWAP1 POP PUSH2 0x170 DUP2 PUSH2 0x14C JUMP JUMPDEST SWAP3 SWAP2 POP POP JUMP JUMPDEST PUSH0 DUP1 PUSH0 PUSH1 0x60 DUP5 DUP7 SUB SLT ISZERO PUSH2 0x18D JUMPI PUSH2 0x18C PUSH2 0x13F JUMP JUMPDEST JUMPDEST PUSH0 PUSH2 0x19A DUP7 DUP3 DUP8 ADD PUSH2 0x162 JUMP JUMPDEST SWAP4 POP POP PUSH1 0x20 PUSH2 0x1AB DUP7 DUP3 DUP8 ADD PUSH2 0x162 JUMP JUMPDEST SWAP3 POP POP PUSH1 0x40 PUSH2 0x1BC DUP7 DUP3 DUP8 ADD PUSH2 0x162 JUMP JUMPDEST SWAP2 POP POP SWAP3 POP SWAP3 POP SWAP3 JUMP JUMPDEST PUSH0 DUP2 MLOAD SWAP1 POP SWAP2 SWAP1 POP JUMP JUMPDEST PUSH0 DUP3 DUP3 MSTORE PUSH1 0x20 DUP3 ADD SWAP1 POP SWAP3 SWAP2 POP POP JUMP JUMPDEST DUP3 DUP2 DUP4 MCOPY PUSH0 DUP4 DUP4 ADD MSTORE POP POP POP JUMP JUMPDEST PUSH0 PUSH1 0x1F NOT PUSH1 0x1F DUP4 ADD AND SWAP1 POP SWAP2 SWAP1 POP JUMP JUMPDEST PUSH0 PUSH2 0x208 DUP3 PUSH2 0x1C6 JUMP JUMPDEST PUSH2 0x212 DUP2 DUP6 PUSH2 0x1D0 JUMP JUMPDEST SWAP4 POP PUSH2 0x222 DUP2 DUP6 PUSH1 0x20 DUP7 ADD PUSH2 0x1E0 JUMP JUMPDEST PUSH2 0x22B DUP2 PUSH2 0x1EE JUMP JUMPDEST DUP5 ADD SWAP2 POP POP SWAP3 SWAP2 POP POP JUMP JUMPDEST PUSH0 PUSH1 0x20 DUP3 ADD SWAP1 POP DUP2 DUP2 SUB PUSH0 DUP4 ADD MSTORE PUSH2 0x24E DUP2 DUP5 PUSH2 0x1FE JUMP JUMPDEST SWAP1 POP SWAP3 SWAP2 POP POP JUMP INVALID LOG2 PUSH5 0x6970667358 0x22 SLT KECCAK256 0x29 BALANCE 0xEE SWAP5 DIV DUP5 DUP13 SWAP4 SWAP5 0x2A SUB GT 0xDE KECCAK256 SWAP7 PUSH29 0xB2C62490645E2BED1C09119B8F1182FC64736F6C634300081A00330000 "
				},
				"gasEstimates": {
					"creation": {
						"codeDepositCost": "130400",
						"executionCost": "175",
						"totalCost": "130575"
					},
					"external": {
						"CheckLargest(int256,int256,int256)": "infinite"
					}
				},
				"methodIdentifiers": {
					"CheckLargest(int256,int256,int256)": "1a4a86f2"
				}
			},
			"storageLayout": {
				"storage": [],
				"types": null
			},
			"userdoc": {
				"kind": "user",
				"methods": {},
				"version": 1
			}
		}
	}
}