{
	"contracts/Table.sol": {
		"Table": {
			"abi": [
				{
					"inputs": [
						{
							"internalType": "uint256",
							"name": "a",
							"type": "uint256"
						}
					],
					"name": "getTable",
					"outputs": [
						{
							"internalType": "uint256[10]",
							"name": "",
							"type": "uint256[10]"
						}
					],
					"stateMutability": "pure",
					"type": "function"
				}
			],
			"devdoc": {
				"kind": "dev",
				"methods": {},
				"version": 1
			},
			"evm": {
				"assembly": "    /* \"contracts/Table.sol\":57:296  contract Table {... */\n  mstore(0x40, 0x80)\n  callvalue\n  dup1\n  iszero\n  tag_1\n  jumpi\n  revert(0x00, 0x00)\ntag_1:\n  pop\n  dataSize(sub_0)\n  dup1\n  dataOffset(sub_0)\n  0x00\n  codecopy\n  0x00\n  return\nstop\n\nsub_0: assembly {\n        /* \"contracts/Table.sol\":57:296  contract Table {... */\n      mstore(0x40, 0x80)\n      callvalue\n      dup1\n      iszero\n      tag_1\n      jumpi\n      revert(0x00, 0x00)\n    tag_1:\n      pop\n      jumpi(tag_2, lt(calldatasize, 0x04))\n      shr(0xe0, calldataload(0x00))\n      dup1\n      0x195e251f\n      eq\n      tag_3\n      jumpi\n    tag_2:\n      revert(0x00, 0x00)\n        /* \"contracts/Table.sol\":79:293  function getTable(uint a) public  pure returns(uint[10] memory) {... */\n    tag_3:\n      tag_4\n      0x04\n      dup1\n      calldatasize\n      sub\n      dup2\n      add\n      swap1\n      tag_5\n      swap2\n      swap1\n      tag_6\n      jump\t// in\n    tag_5:\n      tag_7\n      jump\t// in\n    tag_4:\n      mload(0x40)\n      tag_8\n      swap2\n      swap1\n      tag_9\n      jump\t// in\n    tag_8:\n      mload(0x40)\n      dup1\n      swap2\n      sub\n      swap1\n      return\n    tag_7:\n        /* \"contracts/Table.sol\":126:141  uint[10] memory */\n      tag_10\n      tag_11\n      jump\t// in\n    tag_10:\n        /* \"contracts/Table.sol\":154:175  uint[10] memory Table */\n      tag_13\n      tag_11\n      jump\t// in\n    tag_13:\n        /* \"contracts/Table.sol\":190:196  uint i */\n      0x00\n        /* \"contracts/Table.sol\":199:200  0 */\n      0x00\n        /* \"contracts/Table.sol\":190:200  uint i = 0 */\n      swap1\n      pop\n        /* \"contracts/Table.sol\":186:263  for(uint i = 0 ; i < 10 ; i++){... */\n    tag_14:\n        /* \"contracts/Table.sol\":207:209  10 */\n      0x0a\n        /* \"contracts/Table.sol\":203:204  i */\n      dup2\n        /* \"contracts/Table.sol\":203:209  i < 10 */\n      lt\n        /* \"contracts/Table.sol\":186:263  for(uint i = 0 ; i < 10 ; i++){... */\n      iszero\n      tag_15\n      jumpi\n        /* \"contracts/Table.sol\":249:250  1 */\n      0x01\n        /* \"contracts/Table.sol\":247:248  i */\n      dup2\n        /* \"contracts/Table.sol\":247:250  i+1 */\n      tag_17\n      swap2\n      swap1\n      tag_18\n      jump\t// in\n    tag_17:\n        /* \"contracts/Table.sol\":242:243  a */\n      dup5\n        /* \"contracts/Table.sol\":242:251  a * (i+1) */\n      tag_19\n      swap2\n      swap1\n      tag_20\n      jump\t// in\n    tag_19:\n        /* \"contracts/Table.sol\":231:236  Table */\n      dup3\n        /* \"contracts/Table.sol\":237:238  i */\n      dup3\n        /* \"contracts/Table.sol\":231:239  Table[i] */\n      0x0a\n      dup2\n      lt\n      tag_21\n      jumpi\n      tag_22\n      tag_23\n      jump\t// in\n    tag_22:\n    tag_21:\n      0x20\n      mul\n      add\n        /* \"contracts/Table.sol\":231:251  Table[i] = a * (i+1) */\n      dup2\n      dup2\n      mstore\n      pop\n      pop\n        /* \"contracts/Table.sol\":212:215  i++ */\n      dup1\n      dup1\n      0x01\n      add\n      swap2\n      pop\n      pop\n        /* \"contracts/Table.sol\":186:263  for(uint i = 0 ; i < 10 ; i++){... */\n      jump(tag_14)\n    tag_15:\n      pop\n        /* \"contracts/Table.sol\":280:285  Table */\n      dup1\n        /* \"contracts/Table.sol\":273:285  return Table */\n      swap2\n      pop\n      pop\n        /* \"contracts/Table.sol\":79:293  function getTable(uint a) public  pure returns(uint[10] memory) {... */\n      swap2\n      swap1\n      pop\n      jump\t// out\n    tag_11:\n      mload(0x40)\n      dup1\n      0x0140\n      add\n      0x40\n      mstore\n      dup1\n      0x0a\n      swap1\n      0x20\n      dup3\n      mul\n      dup1\n      calldatasize\n      dup4\n      calldatacopy\n      dup1\n      dup3\n      add\n      swap2\n      pop\n      pop\n      swap1\n      pop\n      pop\n      swap1\n      jump\t// out\n        /* \"#utility.yul\":88:205   */\n    tag_25:\n        /* \"#utility.yul\":197:198   */\n      0x00\n        /* \"#utility.yul\":194:195   */\n      0x00\n        /* \"#utility.yul\":187:199   */\n      revert\n        /* \"#utility.yul\":334:411   */\n    tag_27:\n        /* \"#utility.yul\":371:378   */\n      0x00\n        /* \"#utility.yul\":400:405   */\n      dup2\n        /* \"#utility.yul\":389:405   */\n      swap1\n      pop\n        /* \"#utility.yul\":334:411   */\n      swap2\n      swap1\n      pop\n      jump\t// out\n        /* \"#utility.yul\":417:539   */\n    tag_28:\n        /* \"#utility.yul\":490:514   */\n      tag_44\n        /* \"#utility.yul\":508:513   */\n      dup2\n        /* \"#utility.yul\":490:514   */\n      tag_27\n      jump\t// in\n    tag_44:\n        /* \"#utility.yul\":483:488   */\n      dup2\n        /* \"#utility.yul\":480:515   */\n      eq\n        /* \"#utility.yul\":470:533   */\n      tag_45\n      jumpi\n        /* \"#utility.yul\":529:530   */\n      0x00\n        /* \"#utility.yul\":526:527   */\n      0x00\n        /* \"#utility.yul\":519:531   */\n      revert\n        /* \"#utility.yul\":470:533   */\n    tag_45:\n        /* \"#utility.yul\":417:539   */\n      pop\n      jump\t// out\n        /* \"#utility.yul\":545:684   */\n    tag_29:\n        /* \"#utility.yul\":591:596   */\n      0x00\n        /* \"#utility.yul\":629:635   */\n      dup2\n        /* \"#utility.yul\":616:636   */\n      calldataload\n        /* \"#utility.yul\":607:636   */\n      swap1\n      pop\n        /* \"#utility.yul\":645:678   */\n      tag_47\n        /* \"#utility.yul\":672:677   */\n      dup2\n        /* \"#utility.yul\":645:678   */\n      tag_28\n      jump\t// in\n    tag_47:\n        /* \"#utility.yul\":545:684   */\n      swap3\n      swap2\n      pop\n      pop\n      jump\t// out\n        /* \"#utility.yul\":690:1019   */\n    tag_6:\n        /* \"#utility.yul\":749:755   */\n      0x00\n        /* \"#utility.yul\":798:800   */\n      0x20\n        /* \"#utility.yul\":786:795   */\n      dup3\n        /* \"#utility.yul\":777:784   */\n      dup5\n        /* \"#utility.yul\":773:796   */\n      sub\n        /* \"#utility.yul\":769:801   */\n      slt\n        /* \"#utility.yul\":766:885   */\n      iszero\n      tag_49\n      jumpi\n        /* \"#utility.yul\":804:883   */\n      tag_50\n      tag_25\n      jump\t// in\n    tag_50:\n        /* \"#utility.yul\":766:885   */\n    tag_49:\n        /* \"#utility.yul\":924:925   */\n      0x00\n        /* \"#utility.yul\":949:1002   */\n      tag_51\n        /* \"#utility.yul\":994:1001   */\n      dup5\n        /* \"#utility.yul\":985:991   */\n      dup3\n        /* \"#utility.yul\":974:983   */\n      dup6\n        /* \"#utility.yul\":970:992   */\n      add\n        /* \"#utility.yul\":949:1002   */\n      tag_29\n      jump\t// in\n    tag_51:\n        /* \"#utility.yul\":939:1002   */\n      swap2\n      pop\n        /* \"#utility.yul\":895:1012   */\n      pop\n        /* \"#utility.yul\":690:1019   */\n      swap3\n      swap2\n      pop\n      pop\n      jump\t// out\n        /* \"#utility.yul\":1025:1130   */\n    tag_30:\n        /* \"#utility.yul\":1091:1097   */\n      0x00\n        /* \"#utility.yul\":1119:1123   */\n      0x0a\n        /* \"#utility.yul\":1109:1123   */\n      swap1\n      pop\n        /* \"#utility.yul\":1025:1130   */\n      swap2\n      swap1\n      pop\n      jump\t// out\n        /* \"#utility.yul\":1136:1280   */\n    tag_31:\n        /* \"#utility.yul\":1234:1245   */\n      0x00\n        /* \"#utility.yul\":1271:1274   */\n      dup2\n        /* \"#utility.yul\":1256:1274   */\n      swap1\n      pop\n        /* \"#utility.yul\":1136:1280   */\n      swap3\n      swap2\n      pop\n      pop\n      jump\t// out\n        /* \"#utility.yul\":1286:1385   */\n    tag_32:\n        /* \"#utility.yul\":1352:1356   */\n      0x00\n        /* \"#utility.yul\":1375:1378   */\n      dup2\n        /* \"#utility.yul\":1367:1378   */\n      swap1\n      pop\n        /* \"#utility.yul\":1286:1385   */\n      swap2\n      swap1\n      pop\n      jump\t// out\n        /* \"#utility.yul\":1391:1499   */\n    tag_33:\n        /* \"#utility.yul\":1468:1492   */\n      tag_56\n        /* \"#utility.yul\":1486:1491   */\n      dup2\n        /* \"#utility.yul\":1468:1492   */\n      tag_27\n      jump\t// in\n    tag_56:\n        /* \"#utility.yul\":1463:1466   */\n      dup3\n        /* \"#utility.yul\":1456:1493   */\n      mstore\n        /* \"#utility.yul\":1391:1499   */\n      pop\n      pop\n      jump\t// out\n        /* \"#utility.yul\":1505:1684   */\n    tag_34:\n        /* \"#utility.yul\":1574:1584   */\n      0x00\n        /* \"#utility.yul\":1595:1641   */\n      tag_58\n        /* \"#utility.yul\":1637:1640   */\n      dup4\n        /* \"#utility.yul\":1629:1635   */\n      dup4\n        /* \"#utility.yul\":1595:1641   */\n      tag_33\n      jump\t// in\n    tag_58:\n        /* \"#utility.yul\":1673:1677   */\n      0x20\n        /* \"#utility.yul\":1668:1671   */\n      dup4\n        /* \"#utility.yul\":1664:1678   */\n      add\n        /* \"#utility.yul\":1650:1678   */\n      swap1\n      pop\n        /* \"#utility.yul\":1505:1684   */\n      swap3\n      swap2\n      pop\n      pop\n      jump\t// out\n        /* \"#utility.yul\":1690:1802   */\n    tag_35:\n        /* \"#utility.yul\":1759:1763   */\n      0x00\n        /* \"#utility.yul\":1791:1795   */\n      0x20\n        /* \"#utility.yul\":1786:1789   */\n      dup3\n        /* \"#utility.yul\":1782:1796   */\n      add\n        /* \"#utility.yul\":1774:1796   */\n      swap1\n      pop\n        /* \"#utility.yul\":1690:1802   */\n      swap2\n      swap1\n      pop\n      jump\t// out\n        /* \"#utility.yul\":1842:2542   */\n    tag_36:\n        /* \"#utility.yul\":1980:2033   */\n      tag_61\n        /* \"#utility.yul\":2027:2032   */\n      dup2\n        /* \"#utility.yul\":1980:2033   */\n      tag_30\n      jump\t// in\n    tag_61:\n        /* \"#utility.yul\":2049:2134   */\n      tag_62\n        /* \"#utility.yul\":2127:2133   */\n      dup2\n        /* \"#utility.yul\":2122:2125   */\n      dup5\n        /* \"#utility.yul\":2049:2134   */\n      tag_31\n      jump\t// in\n    tag_62:\n        /* \"#utility.yul\":2042:2134   */\n      swap3\n      pop\n        /* \"#utility.yul\":2158:2213   */\n      tag_63\n        /* \"#utility.yul\":2207:2212   */\n      dup3\n        /* \"#utility.yul\":2158:2213   */\n      tag_32\n      jump\t// in\n    tag_63:\n        /* \"#utility.yul\":2236:2243   */\n      dup1\n        /* \"#utility.yul\":2267:2268   */\n      0x00\n        /* \"#utility.yul\":2252:2535   */\n    tag_64:\n        /* \"#utility.yul\":2277:2283   */\n      dup4\n        /* \"#utility.yul\":2274:2275   */\n      dup2\n        /* \"#utility.yul\":2271:2284   */\n      lt\n        /* \"#utility.yul\":2252:2535   */\n      iszero\n      tag_66\n      jumpi\n        /* \"#utility.yul\":2353:2359   */\n      dup2\n        /* \"#utility.yul\":2347:2360   */\n      mload\n        /* \"#utility.yul\":2380:2443   */\n      tag_67\n        /* \"#utility.yul\":2439:2442   */\n      dup8\n        /* \"#utility.yul\":2424:2437   */\n      dup3\n        /* \"#utility.yul\":2380:2443   */\n      tag_34\n      jump\t// in\n    tag_67:\n        /* \"#utility.yul\":2373:2443   */\n      swap7\n      pop\n        /* \"#utility.yul\":2466:2525   */\n      tag_68\n        /* \"#utility.yul\":2518:2524   */\n      dup4\n        /* \"#utility.yul\":2466:2525   */\n      tag_35\n      jump\t// in\n    tag_68:\n        /* \"#utility.yul\":2456:2525   */\n      swap3\n      pop\n        /* \"#utility.yul\":2312:2535   */\n      pop\n        /* \"#utility.yul\":2299:2300   */\n      0x01\n        /* \"#utility.yul\":2296:2297   */\n      dup2\n        /* \"#utility.yul\":2292:2301   */\n      add\n        /* \"#utility.yul\":2287:2301   */\n      swap1\n      pop\n        /* \"#utility.yul\":2252:2535   */\n      jump(tag_64)\n    tag_66:\n        /* \"#utility.yul\":2256:2270   */\n      pop\n        /* \"#utility.yul\":1956:2542   */\n      pop\n      pop\n      pop\n        /* \"#utility.yul\":1842:2542   */\n      pop\n      pop\n      jump\t// out\n        /* \"#utility.yul\":2548:2867   */\n    tag_9:\n        /* \"#utility.yul\":2689:2693   */\n      0x00\n        /* \"#utility.yul\":2727:2730   */\n      0x0140\n        /* \"#utility.yul\":2716:2725   */\n      dup3\n        /* \"#utility.yul\":2712:2731   */\n      add\n        /* \"#utility.yul\":2704:2731   */\n      swap1\n      pop\n        /* \"#utility.yul\":2741:2860   */\n      tag_70\n        /* \"#utility.yul\":2857:2858   */\n      0x00\n        /* \"#utility.yul\":2846:2855   */\n      dup4\n        /* \"#utility.yul\":2842:2859   */\n      add\n        /* \"#utility.yul\":2833:2839   */\n      dup5\n        /* \"#utility.yul\":2741:2860   */\n      tag_36\n      jump\t// in\n    tag_70:\n        /* \"#utility.yul\":2548:2867   */\n      swap3\n      swap2\n      pop\n      pop\n      jump\t// out\n        /* \"#utility.yul\":2873:3053   */\n    tag_37:\n        /* \"#utility.yul\":2921:2998   */\n      0x4e487b7100000000000000000000000000000000000000000000000000000000\n        /* \"#utility.yul\":2918:2919   */\n      0x00\n        /* \"#utility.yul\":2911:2999   */\n      mstore\n        /* \"#utility.yul\":3018:3022   */\n      0x11\n        /* \"#utility.yul\":3015:3016   */\n      0x04\n        /* \"#utility.yul\":3008:3023   */\n      mstore\n        /* \"#utility.yul\":3042:3046   */\n      0x24\n        /* \"#utility.yul\":3039:3040   */\n      0x00\n        /* \"#utility.yul\":3032:3047   */\n      revert\n        /* \"#utility.yul\":3059:3250   */\n    tag_18:\n        /* \"#utility.yul\":3099:3102   */\n      0x00\n        /* \"#utility.yul\":3118:3138   */\n      tag_73\n        /* \"#utility.yul\":3136:3137   */\n      dup3\n        /* \"#utility.yul\":3118:3138   */\n      tag_27\n      jump\t// in\n    tag_73:\n        /* \"#utility.yul\":3113:3138   */\n      swap2\n      pop\n        /* \"#utility.yul\":3152:3172   */\n      tag_74\n        /* \"#utility.yul\":3170:3171   */\n      dup4\n        /* \"#utility.yul\":3152:3172   */\n      tag_27\n      jump\t// in\n    tag_74:\n        /* \"#utility.yul\":3147:3172   */\n      swap3\n      pop\n        /* \"#utility.yul\":3195:3196   */\n      dup3\n        /* \"#utility.yul\":3192:3193   */\n      dup3\n        /* \"#utility.yul\":3188:3197   */\n      add\n        /* \"#utility.yul\":3181:3197   */\n      swap1\n      pop\n        /* \"#utility.yul\":3216:3219   */\n      dup1\n        /* \"#utility.yul\":3213:3214   */\n      dup3\n        /* \"#utility.yul\":3210:3220   */\n      gt\n        /* \"#utility.yul\":3207:3243   */\n      iszero\n      tag_75\n      jumpi\n        /* \"#utility.yul\":3223:3241   */\n      tag_76\n      tag_37\n      jump\t// in\n    tag_76:\n        /* \"#utility.yul\":3207:3243   */\n    tag_75:\n        /* \"#utility.yul\":3059:3250   */\n      swap3\n      swap2\n      pop\n      pop\n      jump\t// out\n        /* \"#utility.yul\":3256:3666   */\n    tag_20:\n        /* \"#utility.yul\":3296:3303   */\n      0x00\n        /* \"#utility.yul\":3319:3339   */\n      tag_78\n        /* \"#utility.yul\":3337:3338   */\n      dup3\n        /* \"#utility.yul\":3319:3339   */\n      tag_27\n      jump\t// in\n    tag_78:\n        /* \"#utility.yul\":3314:3339   */\n      swap2\n      pop\n        /* \"#utility.yul\":3353:3373   */\n      tag_79\n        /* \"#utility.yul\":3371:3372   */\n      dup4\n        /* \"#utility.yul\":3353:3373   */\n      tag_27\n      jump\t// in\n    tag_79:\n        /* \"#utility.yul\":3348:3373   */\n      swap3\n      pop\n        /* \"#utility.yul\":3408:3409   */\n      dup3\n        /* \"#utility.yul\":3405:3406   */\n      dup3\n        /* \"#utility.yul\":3401:3410   */\n      mul\n        /* \"#utility.yul\":3430:3460   */\n      tag_80\n        /* \"#utility.yul\":3448:3459   */\n      dup2\n        /* \"#utility.yul\":3430:3460   */\n      tag_27\n      jump\t// in\n    tag_80:\n        /* \"#utility.yul\":3419:3460   */\n      swap2\n      pop\n        /* \"#utility.yul\":3609:3610   */\n      dup3\n        /* \"#utility.yul\":3600:3607   */\n      dup3\n        /* \"#utility.yul\":3596:3611   */\n      div\n        /* \"#utility.yul\":3593:3594   */\n      dup5\n        /* \"#utility.yul\":3590:3612   */\n      eq\n        /* \"#utility.yul\":3570:3571   */\n      dup4\n        /* \"#utility.yul\":3563:3572   */\n      iszero\n        /* \"#utility.yul\":3543:3626   */\n      or\n        /* \"#utility.yul\":3520:3659   */\n      tag_81\n      jumpi\n        /* \"#utility.yul\":3639:3657   */\n      tag_82\n      tag_37\n      jump\t// in\n    tag_82:\n        /* \"#utility.yul\":3520:3659   */\n    tag_81:\n        /* \"#utility.yul\":3304:3666   */\n      pop\n        /* \"#utility.yul\":3256:3666   */\n      swap3\n      swap2\n      pop\n      pop\n      jump\t// out\n        /* \"#utility.yul\":3672:3852   */\n    tag_23:\n        /* \"#utility.yul\":3720:3797   */\n      0x4e487b7100000000000000000000000000000000000000000000000000000000\n        /* \"#utility.yul\":3717:3718   */\n      0x00\n        /* \"#utility.yul\":3710:3798   */\n      mstore\n        /* \"#utility.yul\":3817:3821   */\n      0x32\n        /* \"#utility.yul\":3814:3815   */\n      0x04\n        /* \"#utility.yul\":3807:3822   */\n      mstore\n        /* \"#utility.yul\":3841:3845   */\n      0x24\n        /* \"#utility.yul\":3838:3839   */\n      0x00\n        /* \"#utility.yul\":3831:3846   */\n      revert\n\n    auxdata: 0xa2646970667358221220b31a24d3bc4cc7e47f46eb992811c45a4965f583d887f3424dbe4b190c811c0364736f6c634300081c0033\n}\n",
				"bytecode": {
					"linkReferences": {},
					"object": "6080604052348015600e575f5ffd5b5061030e8061001c5f395ff3fe608060405234801561000f575f5ffd5b5060043610610029575f3560e01c8063195e251f1461002d575b5f5ffd5b61004760048036038101906100429190610120565b61005d565b60405161005491906101f0565b60405180910390f35b6100656100c6565b61006d6100c6565b5f5f90505b600a8110156100bc576001816100889190610237565b84610093919061026a565b8282600a81106100a6576100a56102ab565b5b6020020181815250508080600101915050610072565b5080915050919050565b604051806101400160405280600a90602082028036833780820191505090505090565b5f5ffd5b5f819050919050565b6100ff816100ed565b8114610109575f5ffd5b50565b5f8135905061011a816100f6565b92915050565b5f60208284031215610135576101346100e9565b5b5f6101428482850161010c565b91505092915050565b5f600a9050919050565b5f81905092915050565b5f819050919050565b610171816100ed565b82525050565b5f6101828383610168565b60208301905092915050565b5f602082019050919050565b6101a38161014b565b6101ad8184610155565b92506101b88261015f565b805f5b838110156101e85781516101cf8782610177565b96506101da8361018e565b9250506001810190506101bb565b505050505050565b5f610140820190506102045f83018461019a565b92915050565b7f4e487b71000000000000000000000000000000000000000000000000000000005f52601160045260245ffd5b5f610241826100ed565b915061024c836100ed565b92508282019050808211156102645761026361020a565b5b92915050565b5f610274826100ed565b915061027f836100ed565b925082820261028d816100ed565b915082820484148315176102a4576102a361020a565b5b5092915050565b7f4e487b71000000000000000000000000000000000000000000000000000000005f52603260045260245ffdfea2646970667358221220b31a24d3bc4cc7e47f46eb992811c45a4965f583d887f3424dbe4b190c811c0364736f6c634300081c0033",
					"opcodes": "PUSH1 0x80 PUSH1 0x40 MSTORE CALLVALUE DUP1 ISZERO PUSH1 0xE JUMPI PUSH0 PUSH0 REVERT JUMPDEST POP PUSH2 0x30E DUP1 PUSH2 0x1C PUSH0 CODECOPY PUSH0 RETURN INVALID PUSH1 0x80 PUSH1 0x40 MSTORE CALLVALUE DUP1 ISZERO PUSH2 0xF JUMPI PUSH0 PUSH0 REVERT JUMPDEST POP PUSH1 0x4 CALLDATASIZE LT PUSH2 0x29 JUMPI PUSH0 CALLDATALOAD PUSH1 0xE0 SHR DUP1 PUSH4 0x195E251F EQ PUSH2 0x2D JUMPI JUMPDEST PUSH0 PUSH0 REVERT JUMPDEST PUSH2 0x47 PUSH1 0x4 DUP1 CALLDATASIZE SUB DUP2 ADD SWAP1 PUSH2 0x42 SWAP2 SWAP1 PUSH2 0x120 JUMP JUMPDEST PUSH2 0x5D JUMP JUMPDEST PUSH1 0x40 MLOAD PUSH2 0x54 SWAP2 SWAP1 PUSH2 0x1F0 JUMP JUMPDEST PUSH1 0x40 MLOAD DUP1 SWAP2 SUB SWAP1 RETURN JUMPDEST PUSH2 0x65 PUSH2 0xC6 JUMP JUMPDEST PUSH2 0x6D PUSH2 0xC6 JUMP JUMPDEST PUSH0 PUSH0 SWAP1 POP JUMPDEST PUSH1 0xA DUP2 LT ISZERO PUSH2 0xBC JUMPI PUSH1 0x1 DUP2 PUSH2 0x88 SWAP2 SWAP1 PUSH2 0x237 JUMP JUMPDEST DUP5 PUSH2 0x93 SWAP2 SWAP1 PUSH2 0x26A JUMP JUMPDEST DUP3 DUP3 PUSH1 0xA DUP2 LT PUSH2 0xA6 JUMPI PUSH2 0xA5 PUSH2 0x2AB JUMP JUMPDEST JUMPDEST PUSH1 0x20 MUL ADD DUP2 DUP2 MSTORE POP POP DUP1 DUP1 PUSH1 0x1 ADD SWAP2 POP POP PUSH2 0x72 JUMP JUMPDEST POP DUP1 SWAP2 POP POP SWAP2 SWAP1 POP JUMP JUMPDEST PUSH1 0x40 MLOAD DUP1 PUSH2 0x140 ADD PUSH1 0x40 MSTORE DUP1 PUSH1 0xA SWAP1 PUSH1 0x20 DUP3 MUL DUP1 CALLDATASIZE DUP4 CALLDATACOPY DUP1 DUP3 ADD SWAP2 POP POP SWAP1 POP POP SWAP1 JUMP JUMPDEST PUSH0 PUSH0 REVERT JUMPDEST PUSH0 DUP2 SWAP1 POP SWAP2 SWAP1 POP JUMP JUMPDEST PUSH2 0xFF DUP2 PUSH2 0xED JUMP JUMPDEST DUP2 EQ PUSH2 0x109 JUMPI PUSH0 PUSH0 REVERT JUMPDEST POP JUMP JUMPDEST PUSH0 DUP2 CALLDATALOAD SWAP1 POP PUSH2 0x11A DUP2 PUSH2 0xF6 JUMP JUMPDEST SWAP3 SWAP2 POP POP JUMP JUMPDEST PUSH0 PUSH1 0x20 DUP3 DUP5 SUB SLT ISZERO PUSH2 0x135 JUMPI PUSH2 0x134 PUSH2 0xE9 JUMP JUMPDEST JUMPDEST PUSH0 PUSH2 0x142 DUP5 DUP3 DUP6 ADD PUSH2 0x10C JUMP JUMPDEST SWAP2 POP POP SWAP3 SWAP2 POP POP JUMP JUMPDEST PUSH0 PUSH1 0xA SWAP1 POP SWAP2 SWAP1 POP JUMP JUMPDEST PUSH0 DUP2 SWAP1 POP SWAP3 SWAP2 POP POP JUMP JUMPDEST PUSH0 DUP2 SWAP1 POP SWAP2 SWAP1 POP JUMP JUMPDEST PUSH2 0x171 DUP2 PUSH2 0xED JUMP JUMPDEST DUP3 MSTORE POP POP JUMP JUMPDEST PUSH0 PUSH2 0x182 DUP4 DUP4 PUSH2 0x168 JUMP JUMPDEST PUSH1 0x20 DUP4 ADD SWAP1 POP SWAP3 SWAP2 POP POP JUMP JUMPDEST PUSH0 PUSH1 0x20 DUP3 ADD SWAP1 POP SWAP2 SWAP1 POP JUMP JUMPDEST PUSH2 0x1A3 DUP2 PUSH2 0x14B JUMP JUMPDEST PUSH2 0x1AD DUP2 DUP5 PUSH2 0x155 JUMP JUMPDEST SWAP3 POP PUSH2 0x1B8 DUP3 PUSH2 0x15F JUMP JUMPDEST DUP1 PUSH0 JUMPDEST DUP4 DUP2 LT ISZERO PUSH2 0x1E8 JUMPI DUP2 MLOAD PUSH2 0x1CF DUP8 DUP3 PUSH2 0x177 JUMP JUMPDEST SWAP7 POP PUSH2 0x1DA DUP4 PUSH2 0x18E JUMP JUMPDEST SWAP3 POP POP PUSH1 0x1 DUP2 ADD SWAP1 POP PUSH2 0x1BB JUMP JUMPDEST POP POP POP POP POP POP JUMP JUMPDEST PUSH0 PUSH2 0x140 DUP3 ADD SWAP1 POP PUSH2 0x204 PUSH0 DUP4 ADD DUP5 PUSH2 0x19A JUMP JUMPDEST SWAP3 SWAP2 POP POP JUMP JUMPDEST PUSH32 0x4E487B7100000000000000000000000000000000000000000000000000000000 PUSH0 MSTORE PUSH1 0x11 PUSH1 0x4 MSTORE PUSH1 0x24 PUSH0 REVERT JUMPDEST PUSH0 PUSH2 0x241 DUP3 PUSH2 0xED JUMP JUMPDEST SWAP2 POP PUSH2 0x24C DUP4 PUSH2 0xED JUMP JUMPDEST SWAP3 POP DUP3 DUP3 ADD SWAP1 POP DUP1 DUP3 GT ISZERO PUSH2 0x264 JUMPI PUSH2 0x263 PUSH2 0x20A JUMP JUMPDEST JUMPDEST SWAP3 SWAP2 POP POP JUMP JUMPDEST PUSH0 PUSH2 0x274 DUP3 PUSH2 0xED JUMP JUMPDEST SWAP2 POP PUSH2 0x27F DUP4 PUSH2 0xED JUMP JUMPDEST SWAP3 POP DUP3 DUP3 MUL PUSH2 0x28D DUP2 PUSH2 0xED JUMP JUMPDEST SWAP2 POP DUP3 DUP3 DIV DUP5 EQ DUP4 ISZERO OR PUSH2 0x2A4 JUMPI PUSH2 0x2A3 PUSH2 0x20A JUMP JUMPDEST JUMPDEST POP SWAP3 SWAP2 POP POP JUMP JUMPDEST PUSH32 0x4E487B7100000000000000000000000000000000000000000000000000000000 PUSH0 MSTORE PUSH1 0x32 PUSH1 0x4 MSTORE PUSH1 0x24 PUSH0 REVERT INVALID LOG2 PUSH5 0x6970667358 0x22 SLT KECCAK256 0xB3 BYTE 0x24 0xD3 0xBC 0x4C 0xC7 0xE4 PUSH32 0x46EB992811C45A4965F583D887F3424DBE4B190C811C0364736F6C634300081C STOP CALLER "
				},
				"gasEstimates": {
					"creation": {
						"codeDepositCost": "156400",
						"executionCost": "200",
						"totalCost": "156600"
					},
					"external": {
						"getTable(uint256)": "infinite"
					}
				},
				"methodIdentifiers": {
					"getTable(uint256)": "195e251f"
				}
			},
			"storageLayout": {
				"storage": [],
				"types": null
			},
			"userdoc": {
				"kind": "user",
				"methods": {},
				"version": 1
			}
		}
	}
}