{
	"data": {
		"bytecode": {
			"linkReferences": {},
			"object": "6080604052348015600e575f80fd5b506040516102793803806102798339818101604052810190602e91906091565b6040518060400160405280828152602001838152505f80820151815f015560208201518160010155905050505060c8565b5f80fd5b5f819050919050565b6073816063565b8114607c575f80fd5b50565b5f81519050608b81606c565b92915050565b5f806040838503121560a45760a3605f565b5b5f60af85828601607f565b925050602060be85828601607f565b9150509250929050565b6101a4806100d55f395ff3fe608060405234801561000f575f80fd5b5060043610610034575f3560e01c806350ffe1eb14610038578063a56dfe4a14610056575b5f80fd5b610040610075565b60405161004d91906100c0565b60405180910390f35b61005e610098565b60405161006c9291906100d9565b60405180910390f35b5f805f80015490505f806001015490508082610091919061012d565b9250505090565b5f805f0154908060010154905082565b5f819050919050565b6100ba816100a8565b82525050565b5f6020820190506100d35f8301846100b1565b92915050565b5f6040820190506100ec5f8301856100b1565b6100f960208301846100b1565b9392505050565b7f4e487b71000000000000000000000000000000000000000000000000000000005f52601160045260245ffd5b5f610137826100a8565b9150610142836100a8565b92508282019050828112155f8312168382125f84121516171561016857610167610100565b5b9291505056fea26469706673582212205753966718f8103f8eeaa9884d53c819feb265a4410ecfd808000bfc245548f264736f6c634300081a0033",
			"opcodes": "PUSH1 0x80 PUSH1 0x40 MSTORE CALLVALUE DUP1 ISZERO PUSH1 0xE JUMPI PUSH0 DUP1 REVERT JUMPDEST POP PUSH1 0x40 MLOAD PUSH2 0x279 CODESIZE SUB DUP1 PUSH2 0x279 DUP4 CODECOPY DUP2 DUP2 ADD PUSH1 0x40 MSTORE DUP2 ADD SWAP1 PUSH1 0x2E SWAP2 SWAP1 PUSH1 0x91 JUMP JUMPDEST PUSH1 0x40 MLOAD DUP1 PUSH1 0x40 ADD PUSH1 0x40 MSTORE DUP1 DUP3 DUP2 MSTORE PUSH1 0x20 ADD DUP4 DUP2 MSTORE POP PUSH0 DUP1 DUP3 ADD MLOAD DUP2 PUSH0 ADD SSTORE PUSH1 0x20 DUP3 ADD MLOAD DUP2 PUSH1 0x1 ADD SSTORE SWAP1 POP POP POP POP PUSH1 0xC8 JUMP JUMPDEST PUSH0 DUP1 REVERT JUMPDEST PUSH0 DUP2 SWAP1 POP SWAP2 SWAP1 POP JUMP JUMPDEST PUSH1 0x73 DUP2 PUSH1 0x63 JUMP JUMPDEST DUP2 EQ PUSH1 0x7C JUMPI PUSH0 DUP1 REVERT JUMPDEST POP JUMP JUMPDEST PUSH0 DUP2 MLOAD SWAP1 POP PUSH1 0x8B DUP2 PUSH1 0x6C JUMP JUMPDEST SWAP3 SWAP2 POP POP JUMP JUMPDEST PUSH0 DUP1 PUSH1 0x40 DUP4 DUP6 SUB SLT ISZERO PUSH1 0xA4 JUMPI PUSH1 0xA3 PUSH1 0x5F JUMP JUMPDEST JUMPDEST PUSH0 PUSH1 0xAF DUP6 DUP3 DUP7 ADD PUSH1 0x7F JUMP JUMPDEST SWAP3 POP POP PUSH1 0x20 PUSH1 0xBE DUP6 DUP3 DUP7 ADD PUSH1 0x7F JUMP JUMPDEST SWAP2 POP POP SWAP3 POP SWAP3 SWAP1 POP JUMP JUMPDEST PUSH2 0x1A4 DUP1 PUSH2 0xD5 PUSH0 CODECOPY PUSH0 RETURN INVALID PUSH1 0x80 PUSH1 0x40 MSTORE CALLVALUE DUP1 ISZERO PUSH2 0xF JUMPI PUSH0 DUP1 REVERT JUMPDEST POP PUSH1 0x4 CALLDATASIZE LT PUSH2 0x34 JUMPI PUSH0 CALLDATALOAD PUSH1 0xE0 SHR DUP1 PUSH4 0x50FFE1EB EQ PUSH2 0x38 JUMPI DUP1 PUSH4 0xA56DFE4A EQ PUSH2 0x56 JUMPI JUMPDEST PUSH0 DUP1 REVERT JUMPDEST PUSH2 0x40 PUSH2 0x75 JUMP JUMPDEST PUSH1 0x40 MLOAD PUSH2 0x4D SWAP2 SWAP1 PUSH2 0xC0 JUMP JUMPDEST PUSH1 0x40 MLOAD DUP1 SWAP2 SUB SWAP1 RETURN JUMPDEST PUSH2 0x5E PUSH2 0x98 JUMP JUMPDEST PUSH1 0x40 MLOAD PUSH2 0x6C SWAP3 SWAP2 SWAP1 PUSH2 0xD9 JUMP JUMPDEST PUSH1 0x40 MLOAD DUP1 SWAP2 SUB SWAP1 RETURN JUMPDEST PUSH0 DUP1 PUSH0 DUP1 ADD SLOAD SWAP1 POP PUSH0 DUP1 PUSH1 0x1 ADD SLOAD SWAP1 POP DUP1 DUP3 PUSH2 0x91 SWAP2 SWAP1 PUSH2 0x12D JUMP JUMPDEST SWAP3 POP POP POP SWAP1 JUMP JUMPDEST PUSH0 DUP1 PUSH0 ADD SLOAD SWAP1 DUP1 PUSH1 0x1 ADD SLOAD SWAP1 POP DUP3 JUMP JUMPDEST PUSH0 DUP2 SWAP1 POP SWAP2 SWAP1 POP JUMP JUMPDEST PUSH2 0xBA DUP2 PUSH2 0xA8 JUMP JUMPDEST DUP3 MSTORE POP POP JUMP JUMPDEST PUSH0 PUSH1 0x20 DUP3 ADD SWAP1 POP PUSH2 0xD3 PUSH0 DUP4 ADD DUP5 PUSH2 0xB1 JUMP JUMPDEST SWAP3 SWAP2 POP POP JUMP JUMPDEST PUSH0 PUSH1 0x40 DUP3 ADD SWAP1 POP PUSH2 0xEC PUSH0 DUP4 ADD DUP6 PUSH2 0xB1 JUMP JUMPDEST PUSH2 0xF9 PUSH1 0x20 DUP4 ADD DUP5 PUSH2 0xB1 JUMP JUMPDEST SWAP4 SWAP3 POP POP POP JUMP JUMPDEST PUSH32 0x4E487B7100000000000000000000000000000000000000000000000000000000 PUSH0 MSTORE PUSH1 0x11 PUSH1 0x4 MSTORE PUSH1 0x24 PUSH0 REVERT JUMPDEST PUSH0 PUSH2 0x137 DUP3 PUSH2 0xA8 JUMP JUMPDEST SWAP2 POP PUSH2 0x142 DUP4 PUSH2 0xA8 JUMP JUMPDEST SWAP3 POP DUP3 DUP3 ADD SWAP1 POP DUP3 DUP2 SLT ISZERO PUSH0 DUP4 SLT AND DUP4 DUP3 SLT PUSH0 DUP5 SLT ISZERO AND OR ISZERO PUSH2 0x168 JUMPI PUSH2 0x167 PUSH2 0x100 JUMP JUMPDEST JUMPDEST SWAP3 SWAP2 POP POP JUMP INVALID LOG2 PUSH5 0x6970667358 0x22 SLT KECCAK256 JUMPI MSTORE8 SWAP7 PUSH8 0x18F8103F8EEAA988 0x4D MSTORE8 0xC8 NOT INVALID 0xB2 PUSH6 0xA4410ECFD808 STOP SIGNEXTEND 0xFC 0x24 SSTORE BASEFEE CALLCODE PUSH5 0x736F6C6343 STOP ADDMOD BYTE STOP CALLER "
		},
		"gasEstimates": {
			"creation": {
				"codeDepositCost": "84000",
				"executionCost": "infinite",
				"totalCost": "infinite"
			},
			"external": {
				"addStructParams()": "infinite",
				"y()": "infinite"
			}
		},
		"methodIdentifiers": {
			"addStructParams()": "50ffe1eb",
			"y()": "a56dfe4a"
		}
	},
	"abi": [
		{
			"inputs": [
				{
					"internalType": "int256",
					"name": "e",
					"type": "int256"
				},
				{
					"internalType": "int256",
					"name": "a",
					"type": "int256"
				}
			],
			"stateMutability": "nonpayable",
			"type": "constructor"
		},
		{
			"inputs": [],
			"name": "addStructParams",
			"outputs": [
				{
					"internalType": "int256",
					"name": "",
					"type": "int256"
				}
			],
			"stateMutability": "view",
			"type": "function"
		},
		{
			"inputs": [],
			"name": "y",
			"outputs": [
				{
					"internalType": "int256",
					"name": "a",
					"type": "int256"
				},
				{
					"internalType": "int256",
					"name": "e",
					"type": "int256"
				}
			],
			"stateMutability": "view",
			"type": "function"
		}
	]
}